{
  "_format": "hh-sol-artifact-1",
  "contractName": "GushlyFactory",
  "sourceName": "contracts/GushlyFactory.sol",
  "abi": [
    {
      "inputs": [],
      "stateMutability": "nonpayable",
      "type": "constructor"
    },
    {
      "inputs": [],
      "name": "admin",
      "outputs": [
        {
          "internalType": "address",
          "name": "",
          "type": "address"
        }
      ],
      "stateMutability": "view",
      "type": "function"
    },
    {
      "inputs": [
        {
          "internalType": "address",
          "name": "_employee",
          "type": "address"
        },
        {
          "internalType": "uint256",
          "name": "_expiry",
          "type": "uint256"
        },
        {
          "internalType": "bool",
          "name": "_payByHour",
          "type": "bool"
        },
        {
          "internalType": "uint256",
          "name": "_hourlyRate",
          "type": "uint256"
        },
        {
          "internalType": "uint256",
          "name": "_projectRate",
          "type": "uint256"
        }
      ],
      "name": "createContract",
      "outputs": [],
      "stateMutability": "nonpayable",
      "type": "function"
    },
    {
      "inputs": [],
      "name": "getEmployeeContracts",
      "outputs": [
        {
          "internalType": "contract GushlyImplementation[]",
          "name": "",
          "type": "address[]"
        }
      ],
      "stateMutability": "view",
      "type": "function"
    },
    {
      "inputs": [],
      "name": "getEmployerContracts",
      "outputs": [
        {
          "internalType": "contract GushlyImplementation[]",
          "name": "",
          "type": "address[]"
        }
      ],
      "stateMutability": "view",
      "type": "function"
    }
  ],
  "bytecode": "0x608060405234801561001057600080fd5b50336000806101000a81548173ffffffffffffffffffffffffffffffffffffffff021916908373ffffffffffffffffffffffffffffffffffffffff160217905550612fdb806100606000396000f3fe60806040523480156200001157600080fd5b5060043610620000525760003560e01c80634a9d6ae4146200005757806390d1d8321462000079578063e7bae967146200009b578063f851a44014620000bb575b600080fd5b62000061620000dd565b60405162000070919062000691565b60405180910390f35b62000083620001aa565b60405162000092919062000691565b60405180910390f35b620000b96004803603810190620000b39190620004b7565b62000277565b005b620000c562000440565b604051620000d4919062000607565b60405180910390f35b6060600160003373ffffffffffffffffffffffffffffffffffffffff1673ffffffffffffffffffffffffffffffffffffffff168152602001908152602001600020805480602002602001604051908101604052809291908181526020018280548015620001a057602002820191906000526020600020905b8160009054906101000a900473ffffffffffffffffffffffffffffffffffffffff1673ffffffffffffffffffffffffffffffffffffffff168152602001906001019080831162000155575b5050505050905090565b6060600260003373ffffffffffffffffffffffffffffffffffffffff1673ffffffffffffffffffffffffffffffffffffffff1681526020019081526020016000208054806020026020016040519081016040528092919081815260200182805480156200026d57602002820191906000526020600020905b8160009054906101000a900473ffffffffffffffffffffffffffffffffffffffff1673ffffffffffffffffffffffffffffffffffffffff168152602001906001019080831162000222575b5050505050905090565b3373ffffffffffffffffffffffffffffffffffffffff168573ffffffffffffffffffffffffffffffffffffffff161415620002b157600080fd5b6000338686868686604051620002c79062000464565b620002d89695949392919062000624565b604051809103906000f080158015620002f5573d6000803e3d6000fd5b509050600160003373ffffffffffffffffffffffffffffffffffffffff1673ffffffffffffffffffffffffffffffffffffffff168152602001908152602001600020819080600181540180825580915050600190039060005260206000200160009091909190916101000a81548173ffffffffffffffffffffffffffffffffffffffff021916908373ffffffffffffffffffffffffffffffffffffffff160217905550600260008773ffffffffffffffffffffffffffffffffffffffff1673ffffffffffffffffffffffffffffffffffffffff168152602001908152602001600020819080600181540180825580915050600190039060005260206000200160009091909190916101000a81548173ffffffffffffffffffffffffffffffffffffffff021916908373ffffffffffffffffffffffffffffffffffffffff160217905550505050505050565b60008054906101000a900473ffffffffffffffffffffffffffffffffffffffff1681565b6127de80620007c883390190565b600081359050620004838162000779565b92915050565b6000813590506200049a8162000793565b92915050565b600081359050620004b181620007ad565b92915050565b600080600080600060a08688031215620004d657620004d562000774565b5b6000620004e68882890162000472565b9550506020620004f988828901620004a0565b94505060406200050c8882890162000489565b93505060606200051f88828901620004a0565b92505060806200053288828901620004a0565b9150509295509295909350565b60006200054d8383620005e5565b60208301905092915050565b6200056481620006ee565b82525050565b60006200057782620006c5565b620005838185620006dd565b93506200059083620006b5565b8060005b83811015620005c7578151620005ab88826200053f565b9750620005b883620006d0565b92505060018101905062000594565b5085935050505092915050565b620005df8162000702565b82525050565b620005f08162000738565b82525050565b62000601816200072e565b82525050565b60006020820190506200061e600083018462000559565b92915050565b600060c0820190506200063b600083018962000559565b6200064a602083018862000559565b620006596040830187620005f6565b620006686060830186620005d4565b620006776080830185620005f6565b6200068660a0830184620005f6565b979650505050505050565b60006020820190508181036000830152620006ad81846200056a565b905092915050565b6000819050602082019050919050565b600081519050919050565b6000602082019050919050565b600082825260208201905092915050565b6000620006fb826200070e565b9050919050565b60008115159050919050565b600073ffffffffffffffffffffffffffffffffffffffff82169050919050565b6000819050919050565b600062000745826200074c565b9050919050565b6000620007598262000760565b9050919050565b60006200076d826200070e565b9050919050565b600080fd5b6200078481620006ee565b81146200079057600080fd5b50565b6200079e8162000702565b8114620007aa57600080fd5b50565b620007b8816200072e565b8114620007c457600080fd5b5056fe60806040523480156200001157600080fd5b50604051620027de380380620027de83398181016040528101906200003791906200019b565b856000806101000a81548173ffffffffffffffffffffffffffffffffffffffff021916908373ffffffffffffffffffffffffffffffffffffffff16021790555084600160006101000a81548173ffffffffffffffffffffffffffffffffffffffff021916908373ffffffffffffffffffffffffffffffffffffffff1602179055506000600281905550600060038190555060006004819055508342620000de919062000237565b60058190555082600660006101000a81548160ff021916908315150217905550816007819055508060088190555060006009819055506000600a819055506000600b60006101000a81548160ff021916908360048111156200014557620001446200030d565b5b02179055505050505050506200038f565b600081519050620001678162000341565b92915050565b6000815190506200017e816200035b565b92915050565b600081519050620001958162000375565b92915050565b60008060008060008060c08789031215620001bb57620001ba6200033c565b5b6000620001cb89828a0162000156565b9650506020620001de89828a0162000156565b9550506040620001f189828a0162000184565b94505060606200020489828a016200016d565b93505060806200021789828a0162000184565b92505060a06200022a89828a0162000184565b9150509295509295509295565b60006200024482620002d4565b91506200025183620002d4565b9250827fffffffffffffffffffffffffffffffffffffffffffffffffffffffffffffffff03821115620002895762000288620002de565b5b828201905092915050565b6000620002a182620002b4565b9050919050565b60008115159050919050565b600073ffffffffffffffffffffffffffffffffffffffff82169050919050565b6000819050919050565b7f4e487b7100000000000000000000000000000000000000000000000000000000600052601160045260246000fd5b7f4e487b7100000000000000000000000000000000000000000000000000000000600052602160045260246000fd5b600080fd5b6200034c8162000294565b81146200035857600080fd5b50565b6200036681620002a8565b81146200037257600080fd5b50565b6200038081620002d4565b81146200038c57600080fd5b50565b61243f806200039f6000396000f3fe60806040526004361061012e5760003560e01c806367d8b654116100ab578063b8b4f1a01161006f578063b8b4f1a01461042b578063c032846b14610442578063c56e610e1461046d578063d1e2116c14610498578063d2faac15146104af578063f61c266b146104c6576101bf565b806367d8b654146103565780638245163b14610381578063841c3614146103ac578063a2b299c1146103d7578063b531f3c614610402576101bf565b80634fae0f16116100f25780634fae0f161461029757806350d264ca146102c257806353544afe146102eb578063626d0dd8146103025780636793141f1461032b576101bf565b8063126725e0146101c45780632e1a7d4d146101ef57806332c49b4b146102185780634132db8f1461024357806346e301351461026e576101bf565b366101bf5761013b6104f1565b600b60006101000a81548160ff0219169083600481111561015f5761015e612219565b5b02179055506001600481111561017857610177612219565b5b600b60009054906101000a900460ff16600481111561019a57610199612219565b5b146101a457600080fd5b34600260008282546101b69190612008565b92505081905550005b600080fd5b3480156101d057600080fd5b506101d9610647565b6040516101e69190611ec6565b60405180910390f35b3480156101fb57600080fd5b5061021660048036038101906102119190611d4d565b610745565b005b34801561022457600080fd5b5061022d61087d565b60405161023a9190611fdc565b60405180910390f35b34801561024f57600080fd5b5061025861096e565b6040516102659190611eab565b60405180910390f35b34801561027a57600080fd5b5061029560048036038101906102909190611d4d565b610a7f565b005b3480156102a357600080fd5b506102ac610d61565b6040516102b99190611fdc565b60405180910390f35b3480156102ce57600080fd5b506102e960048036038101906102e49190611d4d565b610e52565b005b3480156102f757600080fd5b50610300610f6d565b005b34801561030e57600080fd5b5061032960048036038101906103249190611d4d565b611099565b005b34801561033757600080fd5b506103406111b6565b60405161034d9190611fdc565b60405180910390f35b34801561036257600080fd5b5061036b6112a7565b6040516103789190611fdc565b60405180910390f35b34801561038d57600080fd5b50610396611398565b6040516103a39190611fdc565b60405180910390f35b3480156103b857600080fd5b506103c1611432565b6040516103ce9190611fdc565b60405180910390f35b3480156103e357600080fd5b506103ec611523565b6040516103f99190611eab565b60405180910390f35b34801561040e57600080fd5b5061042960048036038101906104249190611d4d565b611632565b005b34801561043757600080fd5b50610440611765565b005b34801561044e57600080fd5b506104576104f1565b6040516104649190611ee1565b60405180910390f35b34801561047957600080fd5b50610482611893565b60405161048f9190611fdc565b60405180910390f35b3480156104a457600080fd5b506104ad611984565b005b3480156104bb57600080fd5b506104c4611ab2565b005b3480156104d257600080fd5b506104db611c47565b6040516104e89190611fdc565b60405180910390f35b60008060009054906101000a900473ffffffffffffffffffffffffffffffffffffffff1673ffffffffffffffffffffffffffffffffffffffff163373ffffffffffffffffffffffffffffffffffffffff16148061059b5750600160009054906101000a900473ffffffffffffffffffffffffffffffffffffffff1673ffffffffffffffffffffffffffffffffffffffff163373ffffffffffffffffffffffffffffffffffffffff16145b6105da576040517f08c379a00000000000000000000000000000000000000000000000000000000081526004016105d190611f7c565b60405180910390fd5b6004808111156105ed576105ec612219565b5b600b60009054906101000a900460ff16600481111561060f5761060e612219565b5b141561061e5760049050610644565b6005544211156106315760029050610644565b600b60009054906101000a900460ff1690505b90565b60008060009054906101000a900473ffffffffffffffffffffffffffffffffffffffff1673ffffffffffffffffffffffffffffffffffffffff163373ffffffffffffffffffffffffffffffffffffffff1614806106f15750600160009054906101000a900473ffffffffffffffffffffffffffffffffffffffff1673ffffffffffffffffffffffffffffffffffffffff163373ffffffffffffffffffffffffffffffffffffffff16145b610730576040517f08c379a000000000000000000000000000000000000000000000000000000000815260040161072790611f7c565b60405180910390fd5b600660009054906101000a900460ff16905090565b600160009054906101000a900473ffffffffffffffffffffffffffffffffffffffff1673ffffffffffffffffffffffffffffffffffffffff163373ffffffffffffffffffffffffffffffffffffffff16146107d5576040517f08c379a00000000000000000000000000000000000000000000000000000000081526004016107cc90611efc565b60405180910390fd5b60035481111561081a576040517f08c379a000000000000000000000000000000000000000000000000000000000815260040161081190611f1c565b60405180910390fd5b806003600082825461082c91906120e9565b925050819055503373ffffffffffffffffffffffffffffffffffffffff166108fc829081150290604051600060405180830381858888f19350505050158015610879573d6000803e3d6000fd5b5050565b60008060009054906101000a900473ffffffffffffffffffffffffffffffffffffffff1673ffffffffffffffffffffffffffffffffffffffff163373ffffffffffffffffffffffffffffffffffffffff1614806109275750600160009054906101000a900473ffffffffffffffffffffffffffffffffffffffff1673ffffffffffffffffffffffffffffffffffffffff163373ffffffffffffffffffffffffffffffffffffffff16145b610966576040517f08c379a000000000000000000000000000000000000000000000000000000000815260040161095d90611f7c565b60405180910390fd5b600954905090565b60008060009054906101000a900473ffffffffffffffffffffffffffffffffffffffff1673ffffffffffffffffffffffffffffffffffffffff163373ffffffffffffffffffffffffffffffffffffffff161480610a185750600160009054906101000a900473ffffffffffffffffffffffffffffffffffffffff1673ffffffffffffffffffffffffffffffffffffffff163373ffffffffffffffffffffffffffffffffffffffff16145b610a57576040517f08c379a0000000000000000000000000000000000000000000000000000000008152600401610a4e90611f7c565b60405180910390fd5b600160009054906101000a900473ffffffffffffffffffffffffffffffffffffffff16905090565b60008054906101000a900473ffffffffffffffffffffffffffffffffffffffff1673ffffffffffffffffffffffffffffffffffffffff163373ffffffffffffffffffffffffffffffffffffffff1614610b0d576040517f08c379a0000000000000000000000000000000000000000000000000000000008152600401610b0490611f3c565b60405180910390fd5b610b156104f1565b600b60006101000a81548160ff02191690836004811115610b3957610b38612219565b5b021790555060016004811115610b5257610b51612219565b5b600b60009054906101000a900460ff166004811115610b7457610b73612219565b5b14610b7e57600080fd5b600254811115610bc3576040517f08c379a0000000000000000000000000000000000000000000000000000000008152600401610bba90611f9c565b60405180910390fd5b600a54811115610c08576040517f08c379a0000000000000000000000000000000000000000000000000000000008152600401610bff90611f5c565b60405180910390fd5b600660009054906101000a900460ff1615610cf957600060095482610c2d919061218a565b14610c6d576040517f08c379a0000000000000000000000000000000000000000000000000000000008152600401610c6490611fbc565b60405180910390fd5b60075481610c7b919061205e565b60096000828254610c8c91906120e9565b92505081905550600754600954610ca3919061208f565b600a819055508060026000828254610cbb91906120e9565b925050819055508060036000828254610cd49190612008565b925050819055508060046000828254610ced9190612008565b92505081905550610d5e565b80600a6000828254610d0b91906120e9565b925050819055508060026000828254610d2491906120e9565b925050819055508060036000828254610d3d9190612008565b925050819055508060046000828254610d569190612008565b925050819055505b50565b60008060009054906101000a900473ffffffffffffffffffffffffffffffffffffffff1673ffffffffffffffffffffffffffffffffffffffff163373ffffffffffffffffffffffffffffffffffffffff161480610e0b5750600160009054906101000a900473ffffffffffffffffffffffffffffffffffffffff1673ffffffffffffffffffffffffffffffffffffffff163373ffffffffffffffffffffffffffffffffffffffff16145b610e4a576040517f08c379a0000000000000000000000000000000000000000000000000000000008152600401610e4190611f7c565b60405180910390fd5b600754905090565b60008054906101000a900473ffffffffffffffffffffffffffffffffffffffff1673ffffffffffffffffffffffffffffffffffffffff163373ffffffffffffffffffffffffffffffffffffffff1614610ee0576040517f08c379a0000000000000000000000000000000000000000000000000000000008152600401610ed790611f3c565b60405180910390fd5b610ee86104f1565b600b60006101000a81548160ff02191690836004811115610f0c57610f0b612219565b5b0217905550600480811115610f2457610f23612219565b5b600b60009054906101000a900460ff166004811115610f4657610f45612219565b5b1415610f5157600080fd5b8060056000828254610f639190612008565b9250508190555050565b60008054906101000a900473ffffffffffffffffffffffffffffffffffffffff1673ffffffffffffffffffffffffffffffffffffffff163373ffffffffffffffffffffffffffffffffffffffff1614610ffb576040517f08c379a0000000000000000000000000000000000000000000000000000000008152600401610ff290611f3c565b60405180910390fd5b6110036104f1565b600b60006101000a81548160ff0219169083600481111561102757611026612219565b5b0217905550600160048111156110405761103f612219565b5b600b60009054906101000a900460ff16600481111561106257611061612219565b5b1461106c57600080fd5b6003600b60006101000a81548160ff0219169083600481111561109257611091612219565b5b0217905550565b600160009054906101000a900473ffffffffffffffffffffffffffffffffffffffff1673ffffffffffffffffffffffffffffffffffffffff163373ffffffffffffffffffffffffffffffffffffffff1614611129576040517f08c379a000000000000000000000000000000000000000000000000000000000815260040161112090611efc565b60405180910390fd5b6111316104f1565b600b60006101000a81548160ff0219169083600481111561115557611154612219565b5b02179055506001600481111561116e5761116d612219565b5b600b60009054906101000a900460ff1660048111156111905761118f612219565b5b1461119a57600080fd5b80600a60008282546111ac9190612008565b9250508190555050565b60008060009054906101000a900473ffffffffffffffffffffffffffffffffffffffff1673ffffffffffffffffffffffffffffffffffffffff163373ffffffffffffffffffffffffffffffffffffffff1614806112605750600160009054906101000a900473ffffffffffffffffffffffffffffffffffffffff1673ffffffffffffffffffffffffffffffffffffffff163373ffffffffffffffffffffffffffffffffffffffff16145b61129f576040517f08c379a000000000000000000000000000000000000000000000000000000000815260040161129690611f7c565b60405180910390fd5b600454905090565b60008060009054906101000a900473ffffffffffffffffffffffffffffffffffffffff1673ffffffffffffffffffffffffffffffffffffffff163373ffffffffffffffffffffffffffffffffffffffff1614806113515750600160009054906101000a900473ffffffffffffffffffffffffffffffffffffffff1673ffffffffffffffffffffffffffffffffffffffff163373ffffffffffffffffffffffffffffffffffffffff16145b611390576040517f08c379a000000000000000000000000000000000000000000000000000000000815260040161138790611f7c565b60405180910390fd5b600854905090565b6000600160009054906101000a900473ffffffffffffffffffffffffffffffffffffffff1673ffffffffffffffffffffffffffffffffffffffff163373ffffffffffffffffffffffffffffffffffffffff161461142a576040517f08c379a000000000000000000000000000000000000000000000000000000000815260040161142190611efc565b60405180910390fd5b600354905090565b60008060009054906101000a900473ffffffffffffffffffffffffffffffffffffffff1673ffffffffffffffffffffffffffffffffffffffff163373ffffffffffffffffffffffffffffffffffffffff1614806114dc5750600160009054906101000a900473ffffffffffffffffffffffffffffffffffffffff1673ffffffffffffffffffffffffffffffffffffffff163373ffffffffffffffffffffffffffffffffffffffff16145b61151b576040517f08c379a000000000000000000000000000000000000000000000000000000000815260040161151290611f7c565b60405180910390fd5b600a54905090565b60008060009054906101000a900473ffffffffffffffffffffffffffffffffffffffff1673ffffffffffffffffffffffffffffffffffffffff163373ffffffffffffffffffffffffffffffffffffffff1614806115cd5750600160009054906101000a900473ffffffffffffffffffffffffffffffffffffffff1673ffffffffffffffffffffffffffffffffffffffff163373ffffffffffffffffffffffffffffffffffffffff16145b61160c576040517f08c379a000000000000000000000000000000000000000000000000000000000815260040161160390611f7c565b60405180910390fd5b60008054906101000a900473ffffffffffffffffffffffffffffffffffffffff16905090565b600160009054906101000a900473ffffffffffffffffffffffffffffffffffffffff1673ffffffffffffffffffffffffffffffffffffffff163373ffffffffffffffffffffffffffffffffffffffff16146116c2576040517f08c379a00000000000000000000000000000000000000000000000000000000081526004016116b990611efc565b60405180910390fd5b6116ca6104f1565b600b60006101000a81548160ff021916908360048111156116ee576116ed612219565b5b02179055506001600481111561170757611706612219565b5b600b60009054906101000a900460ff16600481111561172957611728612219565b5b1461173357600080fd5b80600960008282546117459190612008565b9250508190555060075460095461175c919061208f565b600a8190555050565b600160009054906101000a900473ffffffffffffffffffffffffffffffffffffffff1673ffffffffffffffffffffffffffffffffffffffff163373ffffffffffffffffffffffffffffffffffffffff16146117f5576040517f08c379a00000000000000000000000000000000000000000000000000000000081526004016117ec90611efc565b60405180910390fd5b6117fd6104f1565b600b60006101000a81548160ff0219169083600481111561182157611820612219565b5b02179055506000600481111561183a57611839612219565b5b600b60009054906101000a900460ff16600481111561185c5761185b612219565b5b1461186657600080fd5b6001600b60006101000a81548160ff0219169083600481111561188c5761188b612219565b5b0217905550565b60008060009054906101000a900473ffffffffffffffffffffffffffffffffffffffff1673ffffffffffffffffffffffffffffffffffffffff163373ffffffffffffffffffffffffffffffffffffffff16148061193d5750600160009054906101000a900473ffffffffffffffffffffffffffffffffffffffff1673ffffffffffffffffffffffffffffffffffffffff163373ffffffffffffffffffffffffffffffffffffffff16145b61197c576040517f08c379a000000000000000000000000000000000000000000000000000000000815260040161197390611f7c565b60405180910390fd5b600254905090565b600160009054906101000a900473ffffffffffffffffffffffffffffffffffffffff1673ffffffffffffffffffffffffffffffffffffffff163373ffffffffffffffffffffffffffffffffffffffff1614611a14576040517f08c379a0000000000000000000000000000000000000000000000000000000008152600401611a0b90611efc565b60405180910390fd5b611a1c6104f1565b600b60006101000a81548160ff02191690836004811115611a4057611a3f612219565b5b021790555060036004811115611a5957611a58612219565b5b600b60009054906101000a900460ff166004811115611a7b57611a7a612219565b5b14611a8557600080fd5b6004600b60006101000a81548160ff02191690836004811115611aab57611aaa612219565b5b0217905550565b60008054906101000a900473ffffffffffffffffffffffffffffffffffffffff1673ffffffffffffffffffffffffffffffffffffffff163373ffffffffffffffffffffffffffffffffffffffff1614611b40576040517f08c379a0000000000000000000000000000000000000000000000000000000008152600401611b3790611f3c565b60405180910390fd5b611b486104f1565b600b60006101000a81548160ff02191690836004811115611b6c57611b6b612219565b5b0217905550600480811115611b8457611b83612219565b5b600b60009054906101000a900460ff166004811115611ba657611ba5612219565b5b1480611be5575060026004811115611bc157611bc0612219565b5b600b60009054906101000a900460ff166004811115611be357611be2612219565b5b145b611bee57600080fd5b6000600254905060006002819055503373ffffffffffffffffffffffffffffffffffffffff166108fc829081150290604051600060405180830381858888f19350505050158015611c43573d6000803e3d6000fd5b5050565b60008060009054906101000a900473ffffffffffffffffffffffffffffffffffffffff1673ffffffffffffffffffffffffffffffffffffffff163373ffffffffffffffffffffffffffffffffffffffff161480611cf15750600160009054906101000a900473ffffffffffffffffffffffffffffffffffffffff1673ffffffffffffffffffffffffffffffffffffffff163373ffffffffffffffffffffffffffffffffffffffff16145b611d30576040517f08c379a0000000000000000000000000000000000000000000000000000000008152600401611d2790611f7c565b60405180910390fd5b600554905090565b600081359050611d47816123f2565b92915050565b600060208284031215611d6357611d62612248565b5b6000611d7184828501611d38565b91505092915050565b611d838161211d565b82525050565b611d928161212f565b82525050565b611da181612178565b82525050565b6000611db4601883611ff7565b9150611dbf8261224d565b602082019050919050565b6000611dd7601d83611ff7565b9150611de282612276565b602082019050919050565b6000611dfa601883611ff7565b9150611e058261229f565b602082019050919050565b6000611e1d602683611ff7565b9150611e28826122c8565b604082019050919050565b6000611e40602883611ff7565b9150611e4b82612317565b604082019050919050565b6000611e63601b83611ff7565b9150611e6e82612366565b602082019050919050565b6000611e86603183611ff7565b9150611e918261238f565b604082019050919050565b611ea58161216e565b82525050565b6000602082019050611ec06000830184611d7a565b92915050565b6000602082019050611edb6000830184611d89565b92915050565b6000602082019050611ef66000830184611d98565b92915050565b60006020820190508181036000830152611f1581611da7565b9050919050565b60006020820190508181036000830152611f3581611dca565b9050919050565b60006020820190508181036000830152611f5581611ded565b9050919050565b60006020820190508181036000830152611f7581611e10565b9050919050565b60006020820190508181036000830152611f9581611e33565b9050919050565b60006020820190508181036000830152611fb581611e56565b9050919050565b60006020820190508181036000830152611fd581611e79565b9050919050565b6000602082019050611ff16000830184611e9c565b92915050565b600082825260208201905092915050565b60006120138261216e565b915061201e8361216e565b9250827fffffffffffffffffffffffffffffffffffffffffffffffffffffffffffffffff03821115612053576120526121bb565b5b828201905092915050565b60006120698261216e565b91506120748361216e565b925082612084576120836121ea565b5b828204905092915050565b600061209a8261216e565b91506120a58361216e565b9250817fffffffffffffffffffffffffffffffffffffffffffffffffffffffffffffffff04831182151516156120de576120dd6121bb565b5b828202905092915050565b60006120f48261216e565b91506120ff8361216e565b925082821015612112576121116121bb565b5b828203905092915050565b60006121288261214e565b9050919050565b60008115159050919050565b6000819050612149826123de565b919050565b600073ffffffffffffffffffffffffffffffffffffffff82169050919050565b6000819050919050565b60006121838261213b565b9050919050565b60006121958261216e565b91506121a08361216e565b9250826121b0576121af6121ea565b5b828206905092915050565b7f4e487b7100000000000000000000000000000000000000000000000000000000600052601160045260246000fd5b7f4e487b7100000000000000000000000000000000000000000000000000000000600052601260045260246000fd5b7f4e487b7100000000000000000000000000000000000000000000000000000000600052602160045260246000fd5b600080fd5b7f596f7520617265206e6f742074686520656d706c6f7965650000000000000000600082015250565b7f496e73756666696369656e7420656d706c6f7965652062616c616e6365000000600082015250565b7f596f7520617265206e6f742074686520656d706c6f7965720000000000000000600082015250565b7f596f752061726520617070726f76696e67206d6f7265207468616e20636c616960008201527f6d56616c75650000000000000000000000000000000000000000000000000000602082015250565b7f596f7520617265206e6f742074686520656d706c6f796572206f72207468652060008201527f656d706c6f796565000000000000000000000000000000000000000000000000602082015250565b7f496e73756666696369656e7420657363726f772062616c616e63650000000000600082015250565b7f416d6f756e7420617070726f766564206d7573742062652061206d756c74697060008201527f6c65206f6620686f75726c792072617465000000000000000000000000000000602082015250565b600581106123ef576123ee612219565b5b50565b6123fb8161216e565b811461240657600080fd5b5056fea26469706673582212200ed5d1d8e502bbeba59e74c032822ce5b477bee476322b675db018c624af8b3d64736f6c63430008070033a2646970667358221220233da5cfdf410db2316f76a017b4ce53d6ef9371e50b7d8f1e0d8a4814eb8f3264736f6c63430008070033",
  "linkReferences": {},
  "deployedLinkReferences": {}
}