{
  "_format": "hh-sol-artifact-1",
  "contractName": "GushlyImplementation",
  "sourceName": "contracts/GushlyImplementation.sol",
  "abi": [
    {
      "inputs": [
        {
          "internalType": "address",
          "name": "_employer",
          "type": "address"
        },
        {
          "internalType": "address",
          "name": "_employee",
          "type": "address"
        },
        {
          "internalType": "uint256",
          "name": "_expiry",
          "type": "uint256"
        },
        {
          "internalType": "bool",
          "name": "_payByHour",
          "type": "bool"
        },
        {
          "internalType": "uint256",
          "name": "_hourlyRate",
          "type": "uint256"
        },
        {
          "internalType": "uint256",
          "name": "_projectRate",
          "type": "uint256"
        }
      ],
      "stateMutability": "nonpayable",
      "type": "constructor"
    },
    {
      "inputs": [
        {
          "internalType": "uint256",
          "name": "_claimHour",
          "type": "uint256"
        }
      ],
      "name": "addClaimValueHourly",
      "outputs": [],
      "stateMutability": "nonpayable",
      "type": "function"
    },
    {
      "inputs": [
        {
          "internalType": "uint256",
          "name": "_claimProjectValue",
          "type": "uint256"
        }
      ],
      "name": "addClaimValueProject",
      "outputs": [],
      "stateMutability": "nonpayable",
      "type": "function"
    },
    {
      "inputs": [
        {
          "internalType": "uint256",
          "name": "_claimApproved",
          "type": "uint256"
        }
      ],
      "name": "approveClaim",
      "outputs": [],
      "stateMutability": "nonpayable",
      "type": "function"
    },
    {
      "inputs": [],
      "name": "approveTermination",
      "outputs": [],
      "stateMutability": "nonpayable",
      "type": "function"
    },
    {
      "inputs": [
        {
          "internalType": "uint256",
          "name": "_extension",
          "type": "uint256"
        }
      ],
      "name": "extendExpiry",
      "outputs": [],
      "stateMutability": "nonpayable",
      "type": "function"
    },
    {
      "inputs": [],
      "name": "getClaimHour",
      "outputs": [
        {
          "internalType": "uint256",
          "name": "",
          "type": "uint256"
        }
      ],
      "stateMutability": "view",
      "type": "function"
    },
    {
      "inputs": [],
      "name": "getClaimValue",
      "outputs": [
        {
          "internalType": "uint256",
          "name": "",
          "type": "uint256"
        }
      ],
      "stateMutability": "view",
      "type": "function"
    },
    {
      "inputs": [],
      "name": "getContractStatus",
      "outputs": [
        {
          "internalType": "enum GushlyImplementation.Status",
          "name": "",
          "type": "uint8"
        }
      ],
      "stateMutability": "view",
      "type": "function"
    },
    {
      "inputs": [],
      "name": "getEmployee",
      "outputs": [
        {
          "internalType": "address",
          "name": "",
          "type": "address"
        }
      ],
      "stateMutability": "view",
      "type": "function"
    },
    {
      "inputs": [],
      "name": "getEmployeeBalance",
      "outputs": [
        {
          "internalType": "uint256",
          "name": "",
          "type": "uint256"
        }
      ],
      "stateMutability": "view",
      "type": "function"
    },
    {
      "inputs": [],
      "name": "getEmployer",
      "outputs": [
        {
          "internalType": "address",
          "name": "",
          "type": "address"
        }
      ],
      "stateMutability": "view",
      "type": "function"
    },
    {
      "inputs": [],
      "name": "getEscrowBalance",
      "outputs": [
        {
          "internalType": "uint256",
          "name": "",
          "type": "uint256"
        }
      ],
      "stateMutability": "view",
      "type": "function"
    },
    {
      "inputs": [],
      "name": "getExpiry",
      "outputs": [
        {
          "internalType": "uint256",
          "name": "",
          "type": "uint256"
        }
      ],
      "stateMutability": "view",
      "type": "function"
    },
    {
      "inputs": [],
      "name": "getHourlyRate",
      "outputs": [
        {
          "internalType": "uint256",
          "name": "",
          "type": "uint256"
        }
      ],
      "stateMutability": "view",
      "type": "function"
    },
    {
      "inputs": [],
      "name": "getPayByHour",
      "outputs": [
        {
          "internalType": "bool",
          "name": "",
          "type": "bool"
        }
      ],
      "stateMutability": "view",
      "type": "function"
    },
    {
      "inputs": [],
      "name": "getProjectRate",
      "outputs": [
        {
          "internalType": "uint256",
          "name": "",
          "type": "uint256"
        }
      ],
      "stateMutability": "view",
      "type": "function"
    },
    {
      "inputs": [],
      "name": "getTotalPaid",
      "outputs": [
        {
          "internalType": "uint256",
          "name": "",
          "type": "uint256"
        }
      ],
      "stateMutability": "view",
      "type": "function"
    },
    {
      "inputs": [],
      "name": "requestTermination",
      "outputs": [],
      "stateMutability": "nonpayable",
      "type": "function"
    },
    {
      "inputs": [],
      "name": "signContract",
      "outputs": [],
      "stateMutability": "nonpayable",
      "type": "function"
    },
    {
      "inputs": [
        {
          "internalType": "uint256",
          "name": "_withdrawAmount",
          "type": "uint256"
        }
      ],
      "name": "withdraw",
      "outputs": [],
      "stateMutability": "nonpayable",
      "type": "function"
    },
    {
      "inputs": [],
      "name": "withdrawRemainingFund",
      "outputs": [],
      "stateMutability": "nonpayable",
      "type": "function"
    },
    {
      "stateMutability": "payable",
      "type": "receive"
    }
  ],
  "bytecode": "0x60806040523480156200001157600080fd5b506040516200276f3803806200276f83398181016040528101906200003791906200019b565b856000806101000a81548173ffffffffffffffffffffffffffffffffffffffff021916908373ffffffffffffffffffffffffffffffffffffffff16021790555084600160006101000a81548173ffffffffffffffffffffffffffffffffffffffff021916908373ffffffffffffffffffffffffffffffffffffffff1602179055506000600281905550600060038190555060006004819055508342620000de919062000237565b60058190555082600660006101000a81548160ff021916908315150217905550816007819055508060088190555060006009819055506000600a819055506000600b60006101000a81548160ff021916908360048111156200014557620001446200030d565b5b02179055505050505050506200038f565b600081519050620001678162000341565b92915050565b6000815190506200017e816200035b565b92915050565b600081519050620001958162000375565b92915050565b60008060008060008060c08789031215620001bb57620001ba6200033c565b5b6000620001cb89828a0162000156565b9650506020620001de89828a0162000156565b9550506040620001f189828a0162000184565b94505060606200020489828a016200016d565b93505060806200021789828a0162000184565b92505060a06200022a89828a0162000184565b9150509295509295509295565b60006200024482620002d4565b91506200025183620002d4565b9250827fffffffffffffffffffffffffffffffffffffffffffffffffffffffffffffffff03821115620002895762000288620002de565b5b828201905092915050565b6000620002a182620002b4565b9050919050565b60008115159050919050565b600073ffffffffffffffffffffffffffffffffffffffff82169050919050565b6000819050919050565b7f4e487b7100000000000000000000000000000000000000000000000000000000600052601160045260246000fd5b7f4e487b7100000000000000000000000000000000000000000000000000000000600052602160045260246000fd5b600080fd5b6200034c8162000294565b81146200035857600080fd5b50565b6200036681620002a8565b81146200037257600080fd5b50565b6200038081620002d4565b81146200038c57600080fd5b50565b6123d0806200039f6000396000f3fe60806040526004361061012e5760003560e01c806367d8b654116100ab578063b8b4f1a01161006f578063b8b4f1a01461042b578063c032846b14610442578063c56e610e1461046d578063d1e2116c14610498578063d2faac15146104af578063f61c266b146104c6576101bf565b806367d8b654146103565780638245163b14610381578063841c3614146103ac578063a2b299c1146103d7578063b531f3c614610402576101bf565b80634fae0f16116100f25780634fae0f161461029757806350d264ca146102c257806353544afe146102eb578063626d0dd8146103025780636793141f1461032b576101bf565b8063126725e0146101c45780632e1a7d4d146101ef57806332c49b4b146102185780634132db8f1461024357806346e301351461026e576101bf565b366101bf5761013b6104f1565b600b60006101000a81548160ff0219169083600481111561015f5761015e6121aa565b5b021790555060016004811115610178576101776121aa565b5b600b60009054906101000a900460ff16600481111561019a576101996121aa565b5b146101a457600080fd5b34600260008282546101b69190611f99565b92505081905550005b600080fd5b3480156101d057600080fd5b506101d9610647565b6040516101e69190611e57565b60405180910390f35b3480156101fb57600080fd5b5061021660048036038101906102119190611cde565b610745565b005b34801561022457600080fd5b5061022d61087d565b60405161023a9190611f6d565b60405180910390f35b34801561024f57600080fd5b5061025861096e565b6040516102659190611e3c565b60405180910390f35b34801561027a57600080fd5b5061029560048036038101906102909190611cde565b610a7f565b005b3480156102a357600080fd5b506102ac610cf8565b6040516102b99190611f6d565b60405180910390f35b3480156102ce57600080fd5b506102e960048036038101906102e49190611cde565b610de9565b005b3480156102f757600080fd5b50610300610f04565b005b34801561030e57600080fd5b5061032960048036038101906103249190611cde565b611030565b005b34801561033757600080fd5b5061034061114d565b60405161034d9190611f6d565b60405180910390f35b34801561036257600080fd5b5061036b61123e565b6040516103789190611f6d565b60405180910390f35b34801561038d57600080fd5b5061039661132f565b6040516103a39190611f6d565b60405180910390f35b3480156103b857600080fd5b506103c16113c9565b6040516103ce9190611f6d565b60405180910390f35b3480156103e357600080fd5b506103ec6114ba565b6040516103f99190611e3c565b60405180910390f35b34801561040e57600080fd5b5061042960048036038101906104249190611cde565b6115c9565b005b34801561043757600080fd5b506104406116fc565b005b34801561044e57600080fd5b506104576104f1565b6040516104649190611e72565b60405180910390f35b34801561047957600080fd5b5061048261182a565b60405161048f9190611f6d565b60405180910390f35b3480156104a457600080fd5b506104ad61191b565b005b3480156104bb57600080fd5b506104c4611a49565b005b3480156104d257600080fd5b506104db611bd8565b6040516104e89190611f6d565b60405180910390f35b60008060009054906101000a900473ffffffffffffffffffffffffffffffffffffffff1673ffffffffffffffffffffffffffffffffffffffff163373ffffffffffffffffffffffffffffffffffffffff16148061059b5750600160009054906101000a900473ffffffffffffffffffffffffffffffffffffffff1673ffffffffffffffffffffffffffffffffffffffff163373ffffffffffffffffffffffffffffffffffffffff16145b6105da576040517f08c379a00000000000000000000000000000000000000000000000000000000081526004016105d190611f0d565b60405180910390fd5b6004808111156105ed576105ec6121aa565b5b600b60009054906101000a900460ff16600481111561060f5761060e6121aa565b5b141561061e5760049050610644565b6005544211156106315760029050610644565b600b60009054906101000a900460ff1690505b90565b60008060009054906101000a900473ffffffffffffffffffffffffffffffffffffffff1673ffffffffffffffffffffffffffffffffffffffff163373ffffffffffffffffffffffffffffffffffffffff1614806106f15750600160009054906101000a900473ffffffffffffffffffffffffffffffffffffffff1673ffffffffffffffffffffffffffffffffffffffff163373ffffffffffffffffffffffffffffffffffffffff16145b610730576040517f08c379a000000000000000000000000000000000000000000000000000000000815260040161072790611f0d565b60405180910390fd5b600660009054906101000a900460ff16905090565b600160009054906101000a900473ffffffffffffffffffffffffffffffffffffffff1673ffffffffffffffffffffffffffffffffffffffff163373ffffffffffffffffffffffffffffffffffffffff16146107d5576040517f08c379a00000000000000000000000000000000000000000000000000000000081526004016107cc90611e8d565b60405180910390fd5b60035481111561081a576040517f08c379a000000000000000000000000000000000000000000000000000000000815260040161081190611ead565b60405180910390fd5b806003600082825461082c919061207a565b925050819055503373ffffffffffffffffffffffffffffffffffffffff166108fc829081150290604051600060405180830381858888f19350505050158015610879573d6000803e3d6000fd5b5050565b60008060009054906101000a900473ffffffffffffffffffffffffffffffffffffffff1673ffffffffffffffffffffffffffffffffffffffff163373ffffffffffffffffffffffffffffffffffffffff1614806109275750600160009054906101000a900473ffffffffffffffffffffffffffffffffffffffff1673ffffffffffffffffffffffffffffffffffffffff163373ffffffffffffffffffffffffffffffffffffffff16145b610966576040517f08c379a000000000000000000000000000000000000000000000000000000000815260040161095d90611f0d565b60405180910390fd5b600954905090565b60008060009054906101000a900473ffffffffffffffffffffffffffffffffffffffff1673ffffffffffffffffffffffffffffffffffffffff163373ffffffffffffffffffffffffffffffffffffffff161480610a185750600160009054906101000a900473ffffffffffffffffffffffffffffffffffffffff1673ffffffffffffffffffffffffffffffffffffffff163373ffffffffffffffffffffffffffffffffffffffff16145b610a57576040517f08c379a0000000000000000000000000000000000000000000000000000000008152600401610a4e90611f0d565b60405180910390fd5b600160009054906101000a900473ffffffffffffffffffffffffffffffffffffffff16905090565b60008054906101000a900473ffffffffffffffffffffffffffffffffffffffff1673ffffffffffffffffffffffffffffffffffffffff163373ffffffffffffffffffffffffffffffffffffffff1614610b0d576040517f08c379a0000000000000000000000000000000000000000000000000000000008152600401610b0490611ecd565b60405180910390fd5b610b156104f1565b600b60006101000a81548160ff02191690836004811115610b3957610b386121aa565b5b021790555060016004811115610b5257610b516121aa565b5b600b60009054906101000a900460ff166004811115610b7457610b736121aa565b5b14610b7e57600080fd5b600254811115610bc3576040517f08c379a0000000000000000000000000000000000000000000000000000000008152600401610bba90611f2d565b60405180910390fd5b600a54811115610c08576040517f08c379a0000000000000000000000000000000000000000000000000000000008152600401610bff90611eed565b60405180910390fd5b600660009054906101000a900460ff1615610caa57600060095482610c2d919061211b565b14610c6d576040517f08c379a0000000000000000000000000000000000000000000000000000000008152600401610c6490611f4d565b60405180910390fd5b60075481610c7b9190611fef565b60096000828254610c8c919061207a565b92505081905550600754600954610ca39190612020565b600a819055505b8060026000828254610cbc919061207a565b925050819055508060036000828254610cd59190611f99565b925050819055508060046000828254610cee9190611f99565b9250508190555050565b60008060009054906101000a900473ffffffffffffffffffffffffffffffffffffffff1673ffffffffffffffffffffffffffffffffffffffff163373ffffffffffffffffffffffffffffffffffffffff161480610da25750600160009054906101000a900473ffffffffffffffffffffffffffffffffffffffff1673ffffffffffffffffffffffffffffffffffffffff163373ffffffffffffffffffffffffffffffffffffffff16145b610de1576040517f08c379a0000000000000000000000000000000000000000000000000000000008152600401610dd890611f0d565b60405180910390fd5b600754905090565b60008054906101000a900473ffffffffffffffffffffffffffffffffffffffff1673ffffffffffffffffffffffffffffffffffffffff163373ffffffffffffffffffffffffffffffffffffffff1614610e77576040517f08c379a0000000000000000000000000000000000000000000000000000000008152600401610e6e90611ecd565b60405180910390fd5b610e7f6104f1565b600b60006101000a81548160ff02191690836004811115610ea357610ea26121aa565b5b0217905550600480811115610ebb57610eba6121aa565b5b600b60009054906101000a900460ff166004811115610edd57610edc6121aa565b5b1415610ee857600080fd5b8060056000828254610efa9190611f99565b9250508190555050565b60008054906101000a900473ffffffffffffffffffffffffffffffffffffffff1673ffffffffffffffffffffffffffffffffffffffff163373ffffffffffffffffffffffffffffffffffffffff1614610f92576040517f08c379a0000000000000000000000000000000000000000000000000000000008152600401610f8990611ecd565b60405180910390fd5b610f9a6104f1565b600b60006101000a81548160ff02191690836004811115610fbe57610fbd6121aa565b5b0217905550600480811115610fd657610fd56121aa565b5b600b60009054906101000a900460ff166004811115610ff857610ff76121aa565b5b141561100357600080fd5b6003600b60006101000a81548160ff02191690836004811115611029576110286121aa565b5b0217905550565b600160009054906101000a900473ffffffffffffffffffffffffffffffffffffffff1673ffffffffffffffffffffffffffffffffffffffff163373ffffffffffffffffffffffffffffffffffffffff16146110c0576040517f08c379a00000000000000000000000000000000000000000000000000000000081526004016110b790611e8d565b60405180910390fd5b6110c86104f1565b600b60006101000a81548160ff021916908360048111156110ec576110eb6121aa565b5b021790555060016004811115611105576111046121aa565b5b600b60009054906101000a900460ff166004811115611127576111266121aa565b5b1461113157600080fd5b80600a60008282546111439190611f99565b9250508190555050565b60008060009054906101000a900473ffffffffffffffffffffffffffffffffffffffff1673ffffffffffffffffffffffffffffffffffffffff163373ffffffffffffffffffffffffffffffffffffffff1614806111f75750600160009054906101000a900473ffffffffffffffffffffffffffffffffffffffff1673ffffffffffffffffffffffffffffffffffffffff163373ffffffffffffffffffffffffffffffffffffffff16145b611236576040517f08c379a000000000000000000000000000000000000000000000000000000000815260040161122d90611f0d565b60405180910390fd5b600454905090565b60008060009054906101000a900473ffffffffffffffffffffffffffffffffffffffff1673ffffffffffffffffffffffffffffffffffffffff163373ffffffffffffffffffffffffffffffffffffffff1614806112e85750600160009054906101000a900473ffffffffffffffffffffffffffffffffffffffff1673ffffffffffffffffffffffffffffffffffffffff163373ffffffffffffffffffffffffffffffffffffffff16145b611327576040517f08c379a000000000000000000000000000000000000000000000000000000000815260040161131e90611f0d565b60405180910390fd5b600854905090565b6000600160009054906101000a900473ffffffffffffffffffffffffffffffffffffffff1673ffffffffffffffffffffffffffffffffffffffff163373ffffffffffffffffffffffffffffffffffffffff16146113c1576040517f08c379a00000000000000000000000000000000000000000000000000000000081526004016113b890611e8d565b60405180910390fd5b600354905090565b60008060009054906101000a900473ffffffffffffffffffffffffffffffffffffffff1673ffffffffffffffffffffffffffffffffffffffff163373ffffffffffffffffffffffffffffffffffffffff1614806114735750600160009054906101000a900473ffffffffffffffffffffffffffffffffffffffff1673ffffffffffffffffffffffffffffffffffffffff163373ffffffffffffffffffffffffffffffffffffffff16145b6114b2576040517f08c379a00000000000000000000000000000000000000000000000000000000081526004016114a990611f0d565b60405180910390fd5b600a54905090565b60008060009054906101000a900473ffffffffffffffffffffffffffffffffffffffff1673ffffffffffffffffffffffffffffffffffffffff163373ffffffffffffffffffffffffffffffffffffffff1614806115645750600160009054906101000a900473ffffffffffffffffffffffffffffffffffffffff1673ffffffffffffffffffffffffffffffffffffffff163373ffffffffffffffffffffffffffffffffffffffff16145b6115a3576040517f08c379a000000000000000000000000000000000000000000000000000000000815260040161159a90611f0d565b60405180910390fd5b60008054906101000a900473ffffffffffffffffffffffffffffffffffffffff16905090565b600160009054906101000a900473ffffffffffffffffffffffffffffffffffffffff1673ffffffffffffffffffffffffffffffffffffffff163373ffffffffffffffffffffffffffffffffffffffff1614611659576040517f08c379a000000000000000000000000000000000000000000000000000000000815260040161165090611e8d565b60405180910390fd5b6116616104f1565b600b60006101000a81548160ff02191690836004811115611685576116846121aa565b5b02179055506001600481111561169e5761169d6121aa565b5b600b60009054906101000a900460ff1660048111156116c0576116bf6121aa565b5b146116ca57600080fd5b80600960008282546116dc9190611f99565b925050819055506007546009546116f39190612020565b600a8190555050565b600160009054906101000a900473ffffffffffffffffffffffffffffffffffffffff1673ffffffffffffffffffffffffffffffffffffffff163373ffffffffffffffffffffffffffffffffffffffff161461178c576040517f08c379a000000000000000000000000000000000000000000000000000000000815260040161178390611e8d565b60405180910390fd5b6117946104f1565b600b60006101000a81548160ff021916908360048111156117b8576117b76121aa565b5b0217905550600060048111156117d1576117d06121aa565b5b600b60009054906101000a900460ff1660048111156117f3576117f26121aa565b5b146117fd57600080fd5b6001600b60006101000a81548160ff02191690836004811115611823576118226121aa565b5b0217905550565b60008060009054906101000a900473ffffffffffffffffffffffffffffffffffffffff1673ffffffffffffffffffffffffffffffffffffffff163373ffffffffffffffffffffffffffffffffffffffff1614806118d45750600160009054906101000a900473ffffffffffffffffffffffffffffffffffffffff1673ffffffffffffffffffffffffffffffffffffffff163373ffffffffffffffffffffffffffffffffffffffff16145b611913576040517f08c379a000000000000000000000000000000000000000000000000000000000815260040161190a90611f0d565b60405180910390fd5b600254905090565b600160009054906101000a900473ffffffffffffffffffffffffffffffffffffffff1673ffffffffffffffffffffffffffffffffffffffff163373ffffffffffffffffffffffffffffffffffffffff16146119ab576040517f08c379a00000000000000000000000000000000000000000000000000000000081526004016119a290611e8d565b60405180910390fd5b6119b36104f1565b600b60006101000a81548160ff021916908360048111156119d7576119d66121aa565b5b0217905550600360048111156119f0576119ef6121aa565b5b600b60009054906101000a900460ff166004811115611a1257611a116121aa565b5b14611a1c57600080fd5b6004600b60006101000a81548160ff02191690836004811115611a4257611a416121aa565b5b0217905550565b60008054906101000a900473ffffffffffffffffffffffffffffffffffffffff1673ffffffffffffffffffffffffffffffffffffffff163373ffffffffffffffffffffffffffffffffffffffff1614611ad7576040517f08c379a0000000000000000000000000000000000000000000000000000000008152600401611ace90611ecd565b60405180910390fd5b611adf6104f1565b600b60006101000a81548160ff02191690836004811115611b0357611b026121aa565b5b0217905550600480811115611b1b57611b1a6121aa565b5b600b60009054906101000a900460ff166004811115611b3d57611b3c6121aa565b5b1480611b7c575060026004811115611b5857611b576121aa565b5b600b60009054906101000a900460ff166004811115611b7a57611b796121aa565b5b145b611b8557600080fd5b60006002819055503373ffffffffffffffffffffffffffffffffffffffff166108fc6002549081150290604051600060405180830381858888f19350505050158015611bd5573d6000803e3d6000fd5b50565b60008060009054906101000a900473ffffffffffffffffffffffffffffffffffffffff1673ffffffffffffffffffffffffffffffffffffffff163373ffffffffffffffffffffffffffffffffffffffff161480611c825750600160009054906101000a900473ffffffffffffffffffffffffffffffffffffffff1673ffffffffffffffffffffffffffffffffffffffff163373ffffffffffffffffffffffffffffffffffffffff16145b611cc1576040517f08c379a0000000000000000000000000000000000000000000000000000000008152600401611cb890611f0d565b60405180910390fd5b600554905090565b600081359050611cd881612383565b92915050565b600060208284031215611cf457611cf36121d9565b5b6000611d0284828501611cc9565b91505092915050565b611d14816120ae565b82525050565b611d23816120c0565b82525050565b611d3281612109565b82525050565b6000611d45601883611f88565b9150611d50826121de565b602082019050919050565b6000611d68601d83611f88565b9150611d7382612207565b602082019050919050565b6000611d8b601883611f88565b9150611d9682612230565b602082019050919050565b6000611dae602683611f88565b9150611db982612259565b604082019050919050565b6000611dd1602883611f88565b9150611ddc826122a8565b604082019050919050565b6000611df4601b83611f88565b9150611dff826122f7565b602082019050919050565b6000611e17603183611f88565b9150611e2282612320565b604082019050919050565b611e36816120ff565b82525050565b6000602082019050611e516000830184611d0b565b92915050565b6000602082019050611e6c6000830184611d1a565b92915050565b6000602082019050611e876000830184611d29565b92915050565b60006020820190508181036000830152611ea681611d38565b9050919050565b60006020820190508181036000830152611ec681611d5b565b9050919050565b60006020820190508181036000830152611ee681611d7e565b9050919050565b60006020820190508181036000830152611f0681611da1565b9050919050565b60006020820190508181036000830152611f2681611dc4565b9050919050565b60006020820190508181036000830152611f4681611de7565b9050919050565b60006020820190508181036000830152611f6681611e0a565b9050919050565b6000602082019050611f826000830184611e2d565b92915050565b600082825260208201905092915050565b6000611fa4826120ff565b9150611faf836120ff565b9250827fffffffffffffffffffffffffffffffffffffffffffffffffffffffffffffffff03821115611fe457611fe361214c565b5b828201905092915050565b6000611ffa826120ff565b9150612005836120ff565b9250826120155761201461217b565b5b828204905092915050565b600061202b826120ff565b9150612036836120ff565b9250817fffffffffffffffffffffffffffffffffffffffffffffffffffffffffffffffff048311821515161561206f5761206e61214c565b5b828202905092915050565b6000612085826120ff565b9150612090836120ff565b9250828210156120a3576120a261214c565b5b828203905092915050565b60006120b9826120df565b9050919050565b60008115159050919050565b60008190506120da8261236f565b919050565b600073ffffffffffffffffffffffffffffffffffffffff82169050919050565b6000819050919050565b6000612114826120cc565b9050919050565b6000612126826120ff565b9150612131836120ff565b9250826121415761214061217b565b5b828206905092915050565b7f4e487b7100000000000000000000000000000000000000000000000000000000600052601160045260246000fd5b7f4e487b7100000000000000000000000000000000000000000000000000000000600052601260045260246000fd5b7f4e487b7100000000000000000000000000000000000000000000000000000000600052602160045260246000fd5b600080fd5b7f596f7520617265206e6f742074686520656d706c6f7965650000000000000000600082015250565b7f496e73756666696369656e7420656d706c6f7965652062616c616e6365000000600082015250565b7f596f7520617265206e6f742074686520656d706c6f7965720000000000000000600082015250565b7f596f752061726520617070726f76696e67206d6f7265207468616e20636c616960008201527f6d56616c75650000000000000000000000000000000000000000000000000000602082015250565b7f596f7520617265206e6f742074686520656d706c6f796572206f72207468652060008201527f656d706c6f796565000000000000000000000000000000000000000000000000602082015250565b7f496e73756666696369656e7420657363726f772062616c616e63650000000000600082015250565b7f416d6f756e7420617070726f766564206d7573742062652061206d756c74697060008201527f6c65206f6620686f75726c792072617465000000000000000000000000000000602082015250565b600581106123805761237f6121aa565b5b50565b61238c816120ff565b811461239757600080fd5b5056fea26469706673582212206442e2014fb41fa493a5444b0b2d36cf68c9eec7e58088abcaa3c22f272f651a64736f6c63430008070033",
  "linkReferences": {},
  "deployedLinkReferences": {}
}